{
  "_format": "hh-sol-artifact-1",
  "contractName": "BlockLend",
  "sourceName": "contracts/BlockLend.sol",
  "abi": [
    {
      "inputs": [],
      "stateMutability": "nonpayable",
      "type": "constructor"
    },
    {
      "anonymous": false,
      "inputs": [
        {
          "indexed": true,
          "internalType": "uint256",
          "name": "loanId",
          "type": "uint256"
        },
        {
          "indexed": false,
          "internalType": "enum BlockLend.LoanStatus",
          "name": "status",
          "type": "uint8"
        }
      ],
      "name": "cancelled",
      "type": "event"
    },
    {
      "anonymous": false,
      "inputs": [
        {
          "indexed": true,
          "internalType": "uint256",
          "name": "loanId",
          "type": "uint256"
        },
        {
          "indexed": true,
          "internalType": "address",
          "name": "lender",
          "type": "address"
        },
        {
          "indexed": false,
          "internalType": "enum BlockLend.LoanStatus",
          "name": "status",
          "type": "uint8"
        }
      ],
      "name": "funded",
      "type": "event"
    },
    {
      "anonymous": false,
      "inputs": [
        {
          "indexed": true,
          "internalType": "uint256",
          "name": "loanId",
          "type": "uint256"
        },
        {
          "indexed": false,
          "internalType": "enum BlockLend.LoanStatus",
          "name": "status",
          "type": "uint8"
        }
      ],
      "name": "liquidated",
      "type": "event"
    },
    {
      "anonymous": false,
      "inputs": [
        {
          "indexed": true,
          "internalType": "uint256",
          "name": "loanId",
          "type": "uint256"
        },
        {
          "indexed": false,
          "internalType": "uint256",
          "name": "paidAmount",
          "type": "uint256"
        }
      ],
      "name": "paymentMade",
      "type": "event"
    },
    {
      "anonymous": false,
      "inputs": [
        {
          "indexed": true,
          "internalType": "uint256",
          "name": "loanId",
          "type": "uint256"
        },
        {
          "indexed": false,
          "internalType": "enum BlockLend.LoanStatus",
          "name": "status",
          "type": "uint8"
        }
      ],
      "name": "repaid",
      "type": "event"
    },
    {
      "anonymous": false,
      "inputs": [
        {
          "indexed": true,
          "internalType": "uint256",
          "name": "loanId",
          "type": "uint256"
        },
        {
          "indexed": true,
          "internalType": "address",
          "name": "borrower",
          "type": "address"
        },
        {
          "indexed": false,
          "internalType": "uint256",
          "name": "amount",
          "type": "uint256"
        },
        {
          "indexed": false,
          "internalType": "enum BlockLend.LoanStatus",
          "name": "status",
          "type": "uint8"
        }
      ],
      "name": "requested",
      "type": "event"
    },
    {
      "inputs": [
        {
          "internalType": "uint256",
          "name": "_loanId",
          "type": "uint256"
        }
      ],
      "name": "cancelLoan",
      "outputs": [],
      "stateMutability": "nonpayable",
      "type": "function"
    },
    {
      "inputs": [
        {
          "internalType": "address",
          "name": "",
          "type": "address"
        }
      ],
      "name": "details",
      "outputs": [
        {
          "internalType": "bytes16",
          "name": "panNumber",
          "type": "bytes16"
        },
        {
          "internalType": "string",
          "name": "name",
          "type": "string"
        },
        {
          "internalType": "uint256",
          "name": "salary",
          "type": "uint256"
        },
        {
          "internalType": "enum BlockLend.Role",
          "name": "role",
          "type": "uint8"
        }
      ],
      "stateMutability": "view",
      "type": "function"
    },
    {
      "inputs": [
        {
          "internalType": "uint256",
          "name": "_loanId",
          "type": "uint256"
        }
      ],
      "name": "fundLoan",
      "outputs": [],
      "stateMutability": "payable",
      "type": "function"
    },
    {
      "inputs": [
        {
          "internalType": "uint256",
          "name": "_loanId",
          "type": "uint256"
        }
      ],
      "name": "liquidate",
      "outputs": [],
      "stateMutability": "nonpayable",
      "type": "function"
    },
    {
      "inputs": [],
      "name": "loanCount",
      "outputs": [
        {
          "internalType": "uint256",
          "name": "",
          "type": "uint256"
        }
      ],
      "stateMutability": "view",
      "type": "function"
    },
    {
      "inputs": [
        {
          "internalType": "uint256",
          "name": "",
          "type": "uint256"
        }
      ],
      "name": "loans",
      "outputs": [
        {
          "internalType": "address",
          "name": "borrower",
          "type": "address"
        },
        {
          "internalType": "address",
          "name": "lender",
          "type": "address"
        },
        {
          "internalType": "uint256",
          "name": "amount",
          "type": "uint256"
        },
        {
          "internalType": "uint256",
          "name": "totalAmount",
          "type": "uint256"
        },
        {
          "internalType": "uint256",
          "name": "paidAmount",
          "type": "uint256"
        },
        {
          "internalType": "uint256",
          "name": "period",
          "type": "uint256"
        },
        {
          "internalType": "uint256",
          "name": "collateral",
          "type": "uint256"
        },
        {
          "internalType": "uint256",
          "name": "interest",
          "type": "uint256"
        },
        {
          "internalType": "enum BlockLend.LoanStatus",
          "name": "status",
          "type": "uint8"
        },
        {
          "internalType": "uint256",
          "name": "startTime",
          "type": "uint256"
        },
        {
          "internalType": "uint256",
          "name": "endTime",
          "type": "uint256"
        }
      ],
      "stateMutability": "view",
      "type": "function"
    },
    {
      "inputs": [],
      "name": "owner",
      "outputs": [
        {
          "internalType": "address",
          "name": "",
          "type": "address"
        }
      ],
      "stateMutability": "view",
      "type": "function"
    },
    {
      "inputs": [],
      "name": "platformFeePercentage",
      "outputs": [
        {
          "internalType": "uint256",
          "name": "",
          "type": "uint256"
        }
      ],
      "stateMutability": "view",
      "type": "function"
    },
    {
      "inputs": [
        {
          "internalType": "uint256",
          "name": "_amount",
          "type": "uint256"
        },
        {
          "internalType": "uint256",
          "name": "_period",
          "type": "uint256"
        },
        {
          "internalType": "uint256",
          "name": "_interest",
          "type": "uint256"
        }
      ],
      "name": "requestLoan",
      "outputs": [],
      "stateMutability": "payable",
      "type": "function"
    },
    {
      "inputs": [
        {
          "internalType": "uint256",
          "name": "_loanId",
          "type": "uint256"
        }
      ],
      "name": "returnLoan",
      "outputs": [],
      "stateMutability": "payable",
      "type": "function"
    },
    {
      "inputs": [
        {
          "internalType": "address",
          "name": "user",
          "type": "address"
        },
        {
          "internalType": "enum BlockLend.Role",
          "name": "role",
          "type": "uint8"
        }
      ],
      "name": "setRoles",
      "outputs": [],
      "stateMutability": "nonpayable",
      "type": "function"
    }
  ],
  "bytecode": "0x6080604052600260015534801561001557600080fd5b50336000806101000a81548173ffffffffffffffffffffffffffffffffffffffff021916908373ffffffffffffffffffffffffffffffffffffffff1602179055506120a1806100656000396000f3fe60806040526004361061009c5760003560e01c8063bdbfa3de11610064578063bdbfa3de1461017a578063cdd78cfc146101a3578063ce63094d146101ce578063e1ec3c68146101f9578063e912615414610240578063edadbbfe1461025c5761009c565b806324a92f9f146100a1578063415f1240146100e157806360e8bbc21461010a578063846b909a146101335780638da5cb5b1461014f575b600080fd5b3480156100ad57600080fd5b506100c860048036038101906100c391906115f1565b610278565b6040516100d89493929190611779565b60405180910390f35b3480156100ed57600080fd5b50610108600480360381019061010391906117f1565b61034a565b005b34801561011657600080fd5b50610131600480360381019061012c9190611843565b6105f0565b005b61014d600480360381019061014891906117f1565b6106ec565b005b34801561015b57600080fd5b50610164610a52565b6040516101719190611892565b60405180910390f35b34801561018657600080fd5b506101a1600480360381019061019c91906117f1565b610a76565b005b3480156101af57600080fd5b506101b8610ce1565b6040516101c591906118ad565b60405180910390f35b3480156101da57600080fd5b506101e3610ce7565b6040516101f091906118ad565b60405180910390f35b34801561020557600080fd5b50610220600480360381019061021b91906117f1565b610ced565b6040516102379b9a99989796959493929190611910565b60405180910390f35b61025a600480360381019061025591906117f1565b610d94565b005b610276600480360381019061027191906119bb565b611220565b005b60026020528060005260406000206000915090508060000160009054906101000a900460801b908060010180546102ae90611a3d565b80601f01602080910402602001604051908101604052809291908181526020018280546102da90611a3d565b80156103275780601f106102fc57610100808354040283529160200191610327565b820191906000526020600020905b81548152906001019060200180831161030a57829003601f168201915b5050505050908060020154908060030160009054906101000a900460ff16905084565b60008111801561035c57506004548111155b61039b576040517f08c379a000000000000000000000000000000000000000000000000000000000815260040161039290611aba565b60405180910390fd5b60006003600083815260200190815260200160002090508060010160009054906101000a900473ffffffffffffffffffffffffffffffffffffffff1673ffffffffffffffffffffffffffffffffffffffff163373ffffffffffffffffffffffffffffffffffffffff1614610444576040517f08c379a000000000000000000000000000000000000000000000000000000000815260040161043b90611b26565b60405180910390fd5b6001600481111561045857610457611702565b5b8160080160009054906101000a900460ff16600481111561047c5761047b611702565b5b146104bc576040517f08c379a00000000000000000000000000000000000000000000000000000000081526004016104b390611b92565b60405180910390fd5b80600a015442116104cc57600080fd5b60038160080160006101000a81548160ff021916908360048111156104f4576104f3611702565b5b021790555060008160040154826003015461050f9190611be1565b9050600082600601548211610524578161052a565b82600601545b9050600083600601819055508260010160009054906101000a900473ffffffffffffffffffffffffffffffffffffffff1673ffffffffffffffffffffffffffffffffffffffff166108fc829081150290604051600060405180830381858888f193505050501580156105a0573d6000803e3d6000fd5b50837f55dd09b50aed066207a14f59fa8011c647e05115de17f31ecc11386291e522198460080160009054906101000a900460ff166040516105e29190611c15565b60405180910390a250505050565b60008054906101000a900473ffffffffffffffffffffffffffffffffffffffff1673ffffffffffffffffffffffffffffffffffffffff163373ffffffffffffffffffffffffffffffffffffffff161461067e576040517f08c379a000000000000000000000000000000000000000000000000000000000815260040161067590611c7c565b60405180910390fd5b80600260008473ffffffffffffffffffffffffffffffffffffffff1673ffffffffffffffffffffffffffffffffffffffff16815260200190815260200160002060030160006101000a81548160ff021916908360018111156106e3576106e2611702565b5b02179055505050565b6000811180156106fe57506004548111155b61073d576040517f08c379a000000000000000000000000000000000000000000000000000000000815260040161073490611aba565b60405180910390fd5b600060036000838152602001908152602001600020905060018081111561076757610766611702565b5b600260003373ffffffffffffffffffffffffffffffffffffffff1673ffffffffffffffffffffffffffffffffffffffff16815260200190815260200160002060030160009054906101000a900460ff1660018111156107c9576107c8611702565b5b14806107d3575060015b610812576040517f08c379a000000000000000000000000000000000000000000000000000000000815260040161080990611b26565b60405180910390fd5b6000600481111561082657610825611702565b5b8160080160009054906101000a900460ff16600481111561084a57610849611702565b5b1461088a576040517f08c379a000000000000000000000000000000000000000000000000000000000815260040161088190611b92565b60405180910390fd5b806002015434146108d0576040517f08c379a00000000000000000000000000000000000000000000000000000000081526004016108c790611ce8565b60405180910390fd5b8060000160009054906101000a900473ffffffffffffffffffffffffffffffffffffffff1673ffffffffffffffffffffffffffffffffffffffff166108fc349081150290604051600060405180830381858888f1935050505015801561093a573d6000803e3d6000fd5b506000816007015482600201546109519190611d08565b9050808260030181905550338260010160006101000a81548173ffffffffffffffffffffffffffffffffffffffff021916908373ffffffffffffffffffffffffffffffffffffffff16021790555060018260080160006101000a81548160ff021916908360048111156109c7576109c6611702565b5b02179055504282600901819055508160050154426109e59190611d08565b82600a01819055503373ffffffffffffffffffffffffffffffffffffffff16837f6cd50b2005d6159b56a6d0250aabf80f0eba896eb4306cc054c03f541523fbb38460080160009054906101000a900460ff16604051610a459190611c15565b60405180910390a3505050565b60008054906101000a900473ffffffffffffffffffffffffffffffffffffffff1681565b600081118015610a8857506004548111155b610ac7576040517f08c379a0000000000000000000000000000000000000000000000000000000008152600401610abe90611d88565b60405180910390fd5b60006003600083815260200190815260200160002090503373ffffffffffffffffffffffffffffffffffffffff168160000160009054906101000a900473ffffffffffffffffffffffffffffffffffffffff1673ffffffffffffffffffffffffffffffffffffffff1614610b70576040517f08c379a0000000000000000000000000000000000000000000000000000000008152600401610b6790611df4565b60405180910390fd5b60006004811115610b8457610b83611702565b5b8160080160009054906101000a900460ff166004811115610ba857610ba7611702565b5b14610be8576040517f08c379a0000000000000000000000000000000000000000000000000000000008152600401610bdf90611e60565b60405180910390fd5b60008160060154905060048260080160006101000a81548160ff02191690836004811115610c1957610c18611702565b5b0217905550600082600601819055508160000160009054906101000a900473ffffffffffffffffffffffffffffffffffffffff1673ffffffffffffffffffffffffffffffffffffffff166108fc829081150290604051600060405180830381858888f19350505050158015610c92573d6000803e3d6000fd5b50827fefaf09bf7d790819fcac3c548b6ea0a723b9ed83223014a300e83231e4b71c6d8360080160009054906101000a900460ff16604051610cd49190611c15565b60405180910390a2505050565b60015481565b60045481565b60036020528060005260406000206000915090508060000160009054906101000a900473ffffffffffffffffffffffffffffffffffffffff16908060010160009054906101000a900473ffffffffffffffffffffffffffffffffffffffff16908060020154908060030154908060040154908060050154908060060154908060070154908060080160009054906101000a900460ff169080600901549080600a015490508b565b600081118015610da657506004548111155b610de5576040517f08c379a0000000000000000000000000000000000000000000000000000000008152600401610ddc90611aba565b60405180910390fd5b60006003600083815260200190815260200160002090508060000160009054906101000a900473ffffffffffffffffffffffffffffffffffffffff1673ffffffffffffffffffffffffffffffffffffffff163373ffffffffffffffffffffffffffffffffffffffff1614610e8e576040517f08c379a0000000000000000000000000000000000000000000000000000000008152600401610e8590611ecc565b60405180910390fd5b60016004811115610ea257610ea1611702565b5b8160080160009054906101000a900460ff166004811115610ec657610ec5611702565b5b14610f06576040517f08c379a0000000000000000000000000000000000000000000000000000000008152600401610efd90611b92565b60405180910390fd5b80600a0154421115610f1757600080fd5b8060030154816004015434610f2c9190611d08565b1115610f6d576040517f08c379a0000000000000000000000000000000000000000000000000000000008152600401610f6490611ce8565b60405180910390fd5b34816004016000828254610f819190611d08565b925050819055508060030154816004015403610fc55760028160080160006101000a81548160ff02191690836004811115610fbf57610fbe611702565b5b02179055505b600081600201548260030154610fdb9190611be1565b90506000606460015483610fef9190611eec565b610ff99190611f5d565b9050600081846003015461100d9190611be1565b905060008054906101000a900473ffffffffffffffffffffffffffffffffffffffff1673ffffffffffffffffffffffffffffffffffffffff166108fc839081150290604051600060405180830381858888f19350505050158015611075573d6000803e3d6000fd5b508360010160009054906101000a900473ffffffffffffffffffffffffffffffffffffffff1673ffffffffffffffffffffffffffffffffffffffff166108fc829081150290604051600060405180830381858888f193505050501580156110e0573d6000803e3d6000fd5b50600260048111156110f5576110f4611702565b5b8460080160009054906101000a900460ff16600481111561111957611118611702565b5b036111e1578360000160009054906101000a900473ffffffffffffffffffffffffffffffffffffffff1673ffffffffffffffffffffffffffffffffffffffff166108fc85600601549081150290604051600060405180830381858888f1935050505015801561118c573d6000803e3d6000fd5b5060008460060181905550847fd78564f319a88b6273201e4f5e561f63409c8291471257e5ffa7a8a62affa4598560080160009054906101000a900460ff166040516111d89190611c15565b60405180910390a25b847f09266df04837e97840195ebe39a63e81b5130dd44ecc1d0bd78b109cd413a8793460405161121191906118ad565b60405180910390a25050505050565b6000600181111561123457611233611702565b5b600260003373ffffffffffffffffffffffffffffffffffffffff1673ffffffffffffffffffffffffffffffffffffffff16815260200190815260200160002060030160009054906101000a900460ff16600181111561129657611295611702565b5b14806112a0575060015b6112df576040517f08c379a00000000000000000000000000000000000000000000000000000000081526004016112d690611ecc565b60405180910390fd5b600060646069856112f09190611eec565b6112fa9190611f5d565b90508034101561133f576040517f08c379a000000000000000000000000000000000000000000000000000000000815260040161133690611fda565b60405180910390fd5b6004600081548092919061135290611ffa565b91905055506040518061016001604052803373ffffffffffffffffffffffffffffffffffffffff168152602001600073ffffffffffffffffffffffffffffffffffffffff1681526020018581526020016000815260200160008152602001848152602001348152602001838152602001600060048111156113d6576113d5611702565b5b815260200160008152602001600081525060036000600454815260200190815260200160002060008201518160000160006101000a81548173ffffffffffffffffffffffffffffffffffffffff021916908373ffffffffffffffffffffffffffffffffffffffff16021790555060208201518160010160006101000a81548173ffffffffffffffffffffffffffffffffffffffff021916908373ffffffffffffffffffffffffffffffffffffffff16021790555060408201518160020155606082015181600301556080820151816004015560a0820151816005015560c0820151816006015560e082015181600701556101008201518160080160006101000a81548160ff021916908360048111156114f2576114f1611702565b5b0217905550610120820151816009015561014082015181600a01559050503373ffffffffffffffffffffffffffffffffffffffff166004547fd9e0fad75719006012070a878700b8153416ce4e886894966c8e67ab561b0ab88660036000600454815260200190815260200160002060080160009054906101000a900460ff16604051611580929190612042565b60405180910390a350505050565b600080fd5b600073ffffffffffffffffffffffffffffffffffffffff82169050919050565b60006115be82611593565b9050919050565b6115ce816115b3565b81146115d957600080fd5b50565b6000813590506115eb816115c5565b92915050565b6000602082840312156116075761160661158e565b5b6000611615848285016115dc565b91505092915050565b60007fffffffffffffffffffffffffffffffff0000000000000000000000000000000082169050919050565b6116538161161e565b82525050565b600081519050919050565b600082825260208201905092915050565b60005b83811015611693578082015181840152602081019050611678565b60008484015250505050565b6000601f19601f8301169050919050565b60006116bb82611659565b6116c58185611664565b93506116d5818560208601611675565b6116de8161169f565b840191505092915050565b6000819050919050565b6116fc816116e9565b82525050565b7f4e487b7100000000000000000000000000000000000000000000000000000000600052602160045260246000fd5b6002811061174257611741611702565b5b50565b600081905061175382611731565b919050565b600061176382611745565b9050919050565b61177381611758565b82525050565b600060808201905061178e600083018761164a565b81810360208301526117a081866116b0565b90506117af60408301856116f3565b6117bc606083018461176a565b95945050505050565b6117ce816116e9565b81146117d957600080fd5b50565b6000813590506117eb816117c5565b92915050565b6000602082840312156118075761180661158e565b5b6000611815848285016117dc565b91505092915050565b6002811061182b57600080fd5b50565b60008135905061183d8161181e565b92915050565b6000806040838503121561185a5761185961158e565b5b6000611868858286016115dc565b92505060206118798582860161182e565b9150509250929050565b61188c816115b3565b82525050565b60006020820190506118a76000830184611883565b92915050565b60006020820190506118c260008301846116f3565b92915050565b600581106118d9576118d8611702565b5b50565b60008190506118ea826118c8565b919050565b60006118fa826118dc565b9050919050565b61190a816118ef565b82525050565b600061016082019050611926600083018e611883565b611933602083018d611883565b611940604083018c6116f3565b61194d606083018b6116f3565b61195a608083018a6116f3565b61196760a08301896116f3565b61197460c08301886116f3565b61198160e08301876116f3565b61198f610100830186611901565b61199d6101208301856116f3565b6119ab6101408301846116f3565b9c9b505050505050505050505050565b6000806000606084860312156119d4576119d361158e565b5b60006119e2868287016117dc565b93505060206119f3868287016117dc565b9250506040611a04868287016117dc565b9150509250925092565b7f4e487b7100000000000000000000000000000000000000000000000000000000600052602260045260246000fd5b60006002820490506001821680611a5557607f821691505b602082108103611a6857611a67611a0e565b5b50919050565b7f496e76616c6964206c6f616e2049440000000000000000000000000000000000600082015250565b6000611aa4600f83611664565b9150611aaf82611a6e565b602082019050919050565b60006020820190508181036000830152611ad381611a97565b9050919050565b7f4e6f742061206c656e6465720000000000000000000000000000000000000000600082015250565b6000611b10600c83611664565b9150611b1b82611ada565b602082019050919050565b60006020820190508181036000830152611b3f81611b03565b9050919050565b7f4c6f616e206e6f7420617661696c61626c650000000000000000000000000000600082015250565b6000611b7c601283611664565b9150611b8782611b46565b602082019050919050565b60006020820190508181036000830152611bab81611b6f565b9050919050565b7f4e487b7100000000000000000000000000000000000000000000000000000000600052601160045260246000fd5b6000611bec826116e9565b9150611bf7836116e9565b9250828203905081811115611c0f57611c0e611bb2565b5b92915050565b6000602082019050611c2a6000830184611901565b92915050565b7f4e6f7420746865206f776e657200000000000000000000000000000000000000600082015250565b6000611c66600d83611664565b9150611c7182611c30565b602082019050919050565b60006020820190508181036000830152611c9581611c59565b9050919050565b7f496e636f72726563742066756e64696e6720616d6f756e740000000000000000600082015250565b6000611cd2601883611664565b9150611cdd82611c9c565b602082019050919050565b60006020820190508181036000830152611d0181611cc5565b9050919050565b6000611d13826116e9565b9150611d1e836116e9565b9250828201905080821115611d3657611d35611bb2565b5b92915050565b7f496e76616c6964204c6f616e2049640000000000000000000000000000000000600082015250565b6000611d72600f83611664565b9150611d7d82611d3c565b602082019050919050565b60006020820190508181036000830152611da181611d65565b9050919050565b7f4e6f7420626f72726f7765720000000000000000000000000000000000000000600082015250565b6000611dde600c83611664565b9150611de982611da8565b602082019050919050565b60006020820190508181036000830152611e0d81611dd1565b9050919050565b7f43616e6e6f742063616e63656c00000000000000000000000000000000000000600082015250565b6000611e4a600d83611664565b9150611e5582611e14565b602082019050919050565b60006020820190508181036000830152611e7981611e3d565b9050919050565b7f4e6f74206120626f72726f776572000000000000000000000000000000000000600082015250565b6000611eb6600e83611664565b9150611ec182611e80565b602082019050919050565b60006020820190508181036000830152611ee581611ea9565b9050919050565b6000611ef7826116e9565b9150611f02836116e9565b9250828202611f10816116e9565b91508282048414831517611f2757611f26611bb2565b5b5092915050565b7f4e487b7100000000000000000000000000000000000000000000000000000000600052601260045260246000fd5b6000611f68826116e9565b9150611f73836116e9565b925082611f8357611f82611f2e565b5b828204905092915050565b7f496e73756666696369656e7420636f6c6c61746572616c000000000000000000600082015250565b6000611fc4601783611664565b9150611fcf82611f8e565b602082019050919050565b60006020820190508181036000830152611ff381611fb7565b9050919050565b6000612005826116e9565b91507fffffffffffffffffffffffffffffffffffffffffffffffffffffffffffffffff820361203757612036611bb2565b5b600182019050919050565b600060408201905061205760008301856116f3565b6120646020830184611901565b939250505056fea264697066735822122063f715f983bf34d9edf25cbe05f618caf41dd7520681f4828ebf341086d1531e64736f6c63430008180033",
  "linkReferences": {},
  "deployedLinkReferences": {}
}