{
  "_format": "hh-sol-artifact-1",
  "contractName": "BlockLend",
  "sourceName": "contracts/BlockLend.sol",
  "abi": [
    {
      "inputs": [],
      "stateMutability": "nonpayable",
      "type": "constructor"
    },
    {
      "anonymous": false,
      "inputs": [
        {
          "indexed": true,
          "internalType": "address",
          "name": "user",
          "type": "address"
        },
        {
          "indexed": false,
          "internalType": "string",
          "name": "name",
          "type": "string"
        },
        {
          "indexed": false,
          "internalType": "enum BlockLend.Role",
          "name": "role",
          "type": "uint8"
        }
      ],
      "name": "UserRegistered",
      "type": "event"
    },
    {
      "anonymous": false,
      "inputs": [
        {
          "indexed": true,
          "internalType": "uint256",
          "name": "loanId",
          "type": "uint256"
        },
        {
          "indexed": false,
          "internalType": "enum BlockLend.LoanStatus",
          "name": "status",
          "type": "uint8"
        }
      ],
      "name": "cancelled",
      "type": "event"
    },
    {
      "anonymous": false,
      "inputs": [
        {
          "indexed": true,
          "internalType": "uint256",
          "name": "loanId",
          "type": "uint256"
        },
        {
          "indexed": true,
          "internalType": "address",
          "name": "lender",
          "type": "address"
        },
        {
          "indexed": false,
          "internalType": "enum BlockLend.LoanStatus",
          "name": "status",
          "type": "uint8"
        }
      ],
      "name": "funded",
      "type": "event"
    },
    {
      "anonymous": false,
      "inputs": [
        {
          "indexed": true,
          "internalType": "uint256",
          "name": "loanId",
          "type": "uint256"
        },
        {
          "indexed": false,
          "internalType": "enum BlockLend.LoanStatus",
          "name": "status",
          "type": "uint8"
        }
      ],
      "name": "liquidated",
      "type": "event"
    },
    {
      "anonymous": false,
      "inputs": [
        {
          "indexed": true,
          "internalType": "uint256",
          "name": "loanId",
          "type": "uint256"
        },
        {
          "indexed": false,
          "internalType": "uint256",
          "name": "paidAmount",
          "type": "uint256"
        }
      ],
      "name": "paymentMade",
      "type": "event"
    },
    {
      "anonymous": false,
      "inputs": [
        {
          "indexed": true,
          "internalType": "uint256",
          "name": "loanId",
          "type": "uint256"
        },
        {
          "indexed": false,
          "internalType": "enum BlockLend.LoanStatus",
          "name": "status",
          "type": "uint8"
        }
      ],
      "name": "repaid",
      "type": "event"
    },
    {
      "anonymous": false,
      "inputs": [
        {
          "indexed": true,
          "internalType": "uint256",
          "name": "loanId",
          "type": "uint256"
        },
        {
          "indexed": true,
          "internalType": "address",
          "name": "borrower",
          "type": "address"
        },
        {
          "indexed": false,
          "internalType": "uint256",
          "name": "amount",
          "type": "uint256"
        },
        {
          "indexed": false,
          "internalType": "enum BlockLend.LoanStatus",
          "name": "status",
          "type": "uint8"
        }
      ],
      "name": "requested",
      "type": "event"
    },
    {
      "inputs": [
        {
          "internalType": "uint256",
          "name": "_loanId",
          "type": "uint256"
        }
      ],
      "name": "cancelLoan",
      "outputs": [],
      "stateMutability": "nonpayable",
      "type": "function"
    },
    {
      "inputs": [
        {
          "internalType": "address",
          "name": "",
          "type": "address"
        }
      ],
      "name": "details",
      "outputs": [
        {
          "internalType": "string",
          "name": "panNumber",
          "type": "string"
        },
        {
          "internalType": "string",
          "name": "name",
          "type": "string"
        },
        {
          "internalType": "uint256",
          "name": "salary",
          "type": "uint256"
        },
        {
          "internalType": "enum BlockLend.Role",
          "name": "role",
          "type": "uint8"
        },
        {
          "internalType": "string",
          "name": "email",
          "type": "string"
        },
        {
          "internalType": "bool",
          "name": "isRegistered",
          "type": "bool"
        }
      ],
      "stateMutability": "view",
      "type": "function"
    },
    {
      "inputs": [
        {
          "internalType": "uint256",
          "name": "_loanId",
          "type": "uint256"
        }
      ],
      "name": "fundLoan",
      "outputs": [],
      "stateMutability": "payable",
      "type": "function"
    },
    {
      "inputs": [
        {
          "internalType": "address",
          "name": "_user",
          "type": "address"
        }
      ],
      "name": "getUser",
      "outputs": [
        {
          "components": [
            {
              "internalType": "string",
              "name": "panNumber",
              "type": "string"
            },
            {
              "internalType": "string",
              "name": "name",
              "type": "string"
            },
            {
              "internalType": "uint256",
              "name": "salary",
              "type": "uint256"
            },
            {
              "internalType": "enum BlockLend.Role",
              "name": "role",
              "type": "uint8"
            },
            {
              "internalType": "string",
              "name": "email",
              "type": "string"
            },
            {
              "internalType": "bool",
              "name": "isRegistered",
              "type": "bool"
            }
          ],
          "internalType": "struct BlockLend.Detail",
          "name": "",
          "type": "tuple"
        }
      ],
      "stateMutability": "view",
      "type": "function"
    },
    {
      "inputs": [
        {
          "internalType": "uint256",
          "name": "_loanId",
          "type": "uint256"
        }
      ],
      "name": "liquidate",
      "outputs": [],
      "stateMutability": "nonpayable",
      "type": "function"
    },
    {
      "inputs": [],
      "name": "loanCount",
      "outputs": [
        {
          "internalType": "uint256",
          "name": "",
          "type": "uint256"
        }
      ],
      "stateMutability": "view",
      "type": "function"
    },
    {
      "inputs": [
        {
          "internalType": "uint256",
          "name": "",
          "type": "uint256"
        }
      ],
      "name": "loans",
      "outputs": [
        {
          "internalType": "address",
          "name": "borrower",
          "type": "address"
        },
        {
          "internalType": "address",
          "name": "lender",
          "type": "address"
        },
        {
          "internalType": "uint256",
          "name": "amount",
          "type": "uint256"
        },
        {
          "internalType": "uint256",
          "name": "totalAmount",
          "type": "uint256"
        },
        {
          "internalType": "uint256",
          "name": "paidAmount",
          "type": "uint256"
        },
        {
          "internalType": "uint256",
          "name": "period",
          "type": "uint256"
        },
        {
          "internalType": "uint256",
          "name": "collateral",
          "type": "uint256"
        },
        {
          "internalType": "uint256",
          "name": "interest",
          "type": "uint256"
        },
        {
          "internalType": "enum BlockLend.LoanStatus",
          "name": "status",
          "type": "uint8"
        },
        {
          "internalType": "uint256",
          "name": "startTime",
          "type": "uint256"
        },
        {
          "internalType": "uint256",
          "name": "endTime",
          "type": "uint256"
        }
      ],
      "stateMutability": "view",
      "type": "function"
    },
    {
      "inputs": [],
      "name": "owner",
      "outputs": [
        {
          "internalType": "address",
          "name": "",
          "type": "address"
        }
      ],
      "stateMutability": "view",
      "type": "function"
    },
    {
      "inputs": [],
      "name": "platformFeePercentage",
      "outputs": [
        {
          "internalType": "uint256",
          "name": "",
          "type": "uint256"
        }
      ],
      "stateMutability": "view",
      "type": "function"
    },
    {
      "inputs": [
        {
          "internalType": "string",
          "name": "_name",
          "type": "string"
        },
        {
          "internalType": "string",
          "name": "_email",
          "type": "string"
        },
        {
          "internalType": "string",
          "name": "_pan",
          "type": "string"
        },
        {
          "internalType": "uint256",
          "name": "_salary",
          "type": "uint256"
        },
        {
          "internalType": "enum BlockLend.Role",
          "name": "_role",
          "type": "uint8"
        }
      ],
      "name": "registerUser",
      "outputs": [],
      "stateMutability": "nonpayable",
      "type": "function"
    },
    {
      "inputs": [
        {
          "internalType": "uint256",
          "name": "_amount",
          "type": "uint256"
        },
        {
          "internalType": "uint256",
          "name": "_period",
          "type": "uint256"
        },
        {
          "internalType": "uint256",
          "name": "_interest",
          "type": "uint256"
        }
      ],
      "name": "requestLoan",
      "outputs": [],
      "stateMutability": "payable",
      "type": "function"
    },
    {
      "inputs": [
        {
          "internalType": "uint256",
          "name": "_loanId",
          "type": "uint256"
        }
      ],
      "name": "returnLoan",
      "outputs": [],
      "stateMutability": "payable",
      "type": "function"
    },
    {
      "inputs": [
        {
          "internalType": "address",
          "name": "user",
          "type": "address"
        },
        {
          "internalType": "enum BlockLend.Role",
          "name": "role",
          "type": "uint8"
        }
      ],
      "name": "setRoles",
      "outputs": [],
      "stateMutability": "nonpayable",
      "type": "function"
    }
  ],
  "bytecode": "0x6080604052600260015534801561001557600080fd5b50336000806101000a81548173ffffffffffffffffffffffffffffffffffffffff021916908373ffffffffffffffffffffffffffffffffffffffff160217905550612e6d806100656000396000f3fe6080604052600436106100c25760003560e01c8063b1b52d201161007f578063ce63094d11610059578063ce63094d1461025c578063e1ec3c6814610287578063e9126154146102ce578063edadbbfe146102ea576100c2565b8063b1b52d20146101df578063bdbfa3de14610208578063cdd78cfc14610231576100c2565b806324a92f9f146100c7578063415f12401461010957806360e8bbc2146101325780636f77926b1461015b578063846b909a146101985780638da5cb5b146101b4575b600080fd5b3480156100d357600080fd5b506100ee60048036038101906100e99190611cf9565b610306565b60405161010096959493929190611e61565b60405180910390f35b34801561011557600080fd5b50610130600480360381019061012b9190611f03565b6104f4565b005b34801561013e57600080fd5b5061015960048036038101906101549190611f55565b61079a565b005b34801561016757600080fd5b50610182600480360381019061017d9190611cf9565b610896565b60405161018f91906120a3565b60405180910390f35b6101b260048036038101906101ad9190611f03565b610b94565b005b3480156101c057600080fd5b506101c9610efa565b6040516101d691906120d4565b60405180910390f35b3480156101eb57600080fd5b5061020660048036038101906102019190612224565b610f1e565b005b34801561021457600080fd5b5061022f600480360381019061022a9190611f03565b611125565b005b34801561023d57600080fd5b50610246611390565b60405161025391906122f3565b60405180910390f35b34801561026857600080fd5b50610271611396565b60405161027e91906122f3565b60405180910390f35b34801561029357600080fd5b506102ae60048036038101906102a99190611f03565b61139c565b6040516102c59b9a99989796959493929190612356565b60405180910390f35b6102e860048036038101906102e39190611f03565b611443565b005b61030460048036038101906102ff9190612401565b6118cf565b005b600260205280600052604060002060009150905080600001805461032990612483565b80601f016020809104026020016040519081016040528092919081815260200182805461035590612483565b80156103a25780601f10610377576101008083540402835291602001916103a2565b820191906000526020600020905b81548152906001019060200180831161038557829003601f168201915b5050505050908060010180546103b790612483565b80601f01602080910402602001604051908101604052809291908181526020018280546103e390612483565b80156104305780601f1061040557610100808354040283529160200191610430565b820191906000526020600020905b81548152906001019060200180831161041357829003601f168201915b5050505050908060020154908060030160009054906101000a900460ff169080600401805461045e90612483565b80601f016020809104026020016040519081016040528092919081815260200182805461048a90612483565b80156104d75780601f106104ac576101008083540402835291602001916104d7565b820191906000526020600020905b8154815290600101906020018083116104ba57829003601f168201915b5050505050908060050160009054906101000a900460ff16905086565b60008111801561050657506004548111155b610545576040517f08c379a000000000000000000000000000000000000000000000000000000000815260040161053c90612500565b60405180910390fd5b60006003600083815260200190815260200160002090508060010160009054906101000a900473ffffffffffffffffffffffffffffffffffffffff1673ffffffffffffffffffffffffffffffffffffffff163373ffffffffffffffffffffffffffffffffffffffff16146105ee576040517f08c379a00000000000000000000000000000000000000000000000000000000081526004016105e59061256c565b60405180910390fd5b6001600481111561060257610601611dcf565b5b8160080160009054906101000a900460ff16600481111561062657610625611dcf565b5b14610666576040517f08c379a000000000000000000000000000000000000000000000000000000000815260040161065d906125d8565b60405180910390fd5b80600a0154421161067657600080fd5b60038160080160006101000a81548160ff0219169083600481111561069e5761069d611dcf565b5b02179055506000816004015482600301546106b99190612627565b90506000826006015482116106ce57816106d4565b82600601545b9050600083600601819055508260010160009054906101000a900473ffffffffffffffffffffffffffffffffffffffff1673ffffffffffffffffffffffffffffffffffffffff166108fc829081150290604051600060405180830381858888f1935050505015801561074a573d6000803e3d6000fd5b50837f55dd09b50aed066207a14f59fa8011c647e05115de17f31ecc11386291e522198460080160009054906101000a900460ff1660405161078c919061265b565b60405180910390a250505050565b60008054906101000a900473ffffffffffffffffffffffffffffffffffffffff1673ffffffffffffffffffffffffffffffffffffffff163373ffffffffffffffffffffffffffffffffffffffff1614610828576040517f08c379a000000000000000000000000000000000000000000000000000000000815260040161081f906126c2565b60405180910390fd5b80600260008473ffffffffffffffffffffffffffffffffffffffff1673ffffffffffffffffffffffffffffffffffffffff16815260200190815260200160002060030160006101000a81548160ff0219169083600181111561088d5761088c611dcf565b5b02179055505050565b61089e611c3d565b600260008373ffffffffffffffffffffffffffffffffffffffff1673ffffffffffffffffffffffffffffffffffffffff16815260200190815260200160002060050160009054906101000a900460ff1661092d576040517f08c379a00000000000000000000000000000000000000000000000000000000081526004016109249061272e565b60405180910390fd5b600260008373ffffffffffffffffffffffffffffffffffffffff1673ffffffffffffffffffffffffffffffffffffffff1681526020019081526020016000206040518060c001604052908160008201805461098790612483565b80601f01602080910402602001604051908101604052809291908181526020018280546109b390612483565b8015610a005780601f106109d557610100808354040283529160200191610a00565b820191906000526020600020905b8154815290600101906020018083116109e357829003601f168201915b50505050508152602001600182018054610a1990612483565b80601f0160208091040260200160405190810160405280929190818152602001828054610a4590612483565b8015610a925780601f10610a6757610100808354040283529160200191610a92565b820191906000526020600020905b815481529060010190602001808311610a7557829003601f168201915b50505050508152602001600282015481526020016003820160009054906101000a900460ff166001811115610aca57610ac9611dcf565b5b6001811115610adc57610adb611dcf565b5b8152602001600482018054610af090612483565b80601f0160208091040260200160405190810160405280929190818152602001828054610b1c90612483565b8015610b695780601f10610b3e57610100808354040283529160200191610b69565b820191906000526020600020905b815481529060010190602001808311610b4c57829003601f168201915b505050505081526020016005820160009054906101000a900460ff1615151515815250509050919050565b600081118015610ba657506004548111155b610be5576040517f08c379a0000000000000000000000000000000000000000000000000000000008152600401610bdc90612500565b60405180910390fd5b6000600360008381526020019081526020016000209050600180811115610c0f57610c0e611dcf565b5b600260003373ffffffffffffffffffffffffffffffffffffffff1673ffffffffffffffffffffffffffffffffffffffff16815260200190815260200160002060030160009054906101000a900460ff166001811115610c7157610c70611dcf565b5b1480610c7b575060015b610cba576040517f08c379a0000000000000000000000000000000000000000000000000000000008152600401610cb19061256c565b60405180910390fd5b60006004811115610cce57610ccd611dcf565b5b8160080160009054906101000a900460ff166004811115610cf257610cf1611dcf565b5b14610d32576040517f08c379a0000000000000000000000000000000000000000000000000000000008152600401610d29906125d8565b60405180910390fd5b80600201543414610d78576040517f08c379a0000000000000000000000000000000000000000000000000000000008152600401610d6f9061279a565b60405180910390fd5b8060000160009054906101000a900473ffffffffffffffffffffffffffffffffffffffff1673ffffffffffffffffffffffffffffffffffffffff166108fc349081150290604051600060405180830381858888f19350505050158015610de2573d6000803e3d6000fd5b50600081600701548260020154610df991906127ba565b9050808260030181905550338260010160006101000a81548173ffffffffffffffffffffffffffffffffffffffff021916908373ffffffffffffffffffffffffffffffffffffffff16021790555060018260080160006101000a81548160ff02191690836004811115610e6f57610e6e611dcf565b5b0217905550428260090181905550816005015442610e8d91906127ba565b82600a01819055503373ffffffffffffffffffffffffffffffffffffffff16837f6cd50b2005d6159b56a6d0250aabf80f0eba896eb4306cc054c03f541523fbb38460080160009054906101000a900460ff16604051610eed919061265b565b60405180910390a3505050565b60008054906101000a900473ffffffffffffffffffffffffffffffffffffffff1681565b600260003373ffffffffffffffffffffffffffffffffffffffff1673ffffffffffffffffffffffffffffffffffffffff16815260200190815260200160002060050160009054906101000a900460ff1615610fae576040517f08c379a0000000000000000000000000000000000000000000000000000000008152600401610fa59061283a565b60405180910390fd5b6040518060c00160405280848152602001868152602001838152602001826001811115610fde57610fdd611dcf565b5b815260200185815260200160011515815250600260003373ffffffffffffffffffffffffffffffffffffffff1673ffffffffffffffffffffffffffffffffffffffff16815260200190815260200160002060008201518160000190816110449190612a06565b50602082015181600101908161105a9190612a06565b506040820151816002015560608201518160030160006101000a81548160ff021916908360018111156110905761108f611dcf565b5b021790555060808201518160040190816110aa9190612a06565b5060a08201518160050160006101000a81548160ff0219169083151502179055509050503373ffffffffffffffffffffffffffffffffffffffff167fc2e5d5da58bd71d1a2d14cdef02a4256d971b728088f8190d067ccfbae3bd73e8683604051611116929190612ad8565b60405180910390a25050505050565b60008111801561113757506004548111155b611176576040517f08c379a000000000000000000000000000000000000000000000000000000000815260040161116d90612b54565b60405180910390fd5b60006003600083815260200190815260200160002090503373ffffffffffffffffffffffffffffffffffffffff168160000160009054906101000a900473ffffffffffffffffffffffffffffffffffffffff1673ffffffffffffffffffffffffffffffffffffffff161461121f576040517f08c379a000000000000000000000000000000000000000000000000000000000815260040161121690612bc0565b60405180910390fd5b6000600481111561123357611232611dcf565b5b8160080160009054906101000a900460ff16600481111561125757611256611dcf565b5b14611297576040517f08c379a000000000000000000000000000000000000000000000000000000000815260040161128e90612c2c565b60405180910390fd5b60008160060154905060048260080160006101000a81548160ff021916908360048111156112c8576112c7611dcf565b5b0217905550600082600601819055508160000160009054906101000a900473ffffffffffffffffffffffffffffffffffffffff1673ffffffffffffffffffffffffffffffffffffffff166108fc829081150290604051600060405180830381858888f19350505050158015611341573d6000803e3d6000fd5b50827fefaf09bf7d790819fcac3c548b6ea0a723b9ed83223014a300e83231e4b71c6d8360080160009054906101000a900460ff16604051611383919061265b565b60405180910390a2505050565b60015481565b60045481565b60036020528060005260406000206000915090508060000160009054906101000a900473ffffffffffffffffffffffffffffffffffffffff16908060010160009054906101000a900473ffffffffffffffffffffffffffffffffffffffff16908060020154908060030154908060040154908060050154908060060154908060070154908060080160009054906101000a900460ff169080600901549080600a015490508b565b60008111801561145557506004548111155b611494576040517f08c379a000000000000000000000000000000000000000000000000000000000815260040161148b90612500565b60405180910390fd5b60006003600083815260200190815260200160002090508060000160009054906101000a900473ffffffffffffffffffffffffffffffffffffffff1673ffffffffffffffffffffffffffffffffffffffff163373ffffffffffffffffffffffffffffffffffffffff161461153d576040517f08c379a000000000000000000000000000000000000000000000000000000000815260040161153490612c98565b60405180910390fd5b6001600481111561155157611550611dcf565b5b8160080160009054906101000a900460ff16600481111561157557611574611dcf565b5b146115b5576040517f08c379a00000000000000000000000000000000000000000000000000000000081526004016115ac906125d8565b60405180910390fd5b80600a01544211156115c657600080fd5b80600301548160040154346115db91906127ba565b111561161c576040517f08c379a00000000000000000000000000000000000000000000000000000000081526004016116139061279a565b60405180910390fd5b3481600401600082825461163091906127ba565b9250508190555080600301548160040154036116745760028160080160006101000a81548160ff0219169083600481111561166e5761166d611dcf565b5b02179055505b60008160020154826003015461168a9190612627565b9050600060646001548361169e9190612cb8565b6116a89190612d29565b905060008184600301546116bc9190612627565b905060008054906101000a900473ffffffffffffffffffffffffffffffffffffffff1673ffffffffffffffffffffffffffffffffffffffff166108fc839081150290604051600060405180830381858888f19350505050158015611724573d6000803e3d6000fd5b508360010160009054906101000a900473ffffffffffffffffffffffffffffffffffffffff1673ffffffffffffffffffffffffffffffffffffffff166108fc829081150290604051600060405180830381858888f1935050505015801561178f573d6000803e3d6000fd5b50600260048111156117a4576117a3611dcf565b5b8460080160009054906101000a900460ff1660048111156117c8576117c7611dcf565b5b03611890578360000160009054906101000a900473ffffffffffffffffffffffffffffffffffffffff1673ffffffffffffffffffffffffffffffffffffffff166108fc85600601549081150290604051600060405180830381858888f1935050505015801561183b573d6000803e3d6000fd5b5060008460060181905550847fd78564f319a88b6273201e4f5e561f63409c8291471257e5ffa7a8a62affa4598560080160009054906101000a900460ff16604051611887919061265b565b60405180910390a25b847f09266df04837e97840195ebe39a63e81b5130dd44ecc1d0bd78b109cd413a879346040516118c091906122f3565b60405180910390a25050505050565b600060018111156118e3576118e2611dcf565b5b600260003373ffffffffffffffffffffffffffffffffffffffff1673ffffffffffffffffffffffffffffffffffffffff16815260200190815260200160002060030160009054906101000a900460ff16600181111561194557611944611dcf565b5b148061194f575060015b61198e576040517f08c379a000000000000000000000000000000000000000000000000000000000815260040161198590612c98565b60405180910390fd5b6000606460698561199f9190612cb8565b6119a99190612d29565b9050803410156119ee576040517f08c379a00000000000000000000000000000000000000000000000000000000081526004016119e590612da6565b60405180910390fd5b60046000815480929190611a0190612dc6565b91905055506040518061016001604052803373ffffffffffffffffffffffffffffffffffffffff168152602001600073ffffffffffffffffffffffffffffffffffffffff168152602001858152602001600081526020016000815260200184815260200134815260200183815260200160006004811115611a8557611a84611dcf565b5b815260200160008152602001600081525060036000600454815260200190815260200160002060008201518160000160006101000a81548173ffffffffffffffffffffffffffffffffffffffff021916908373ffffffffffffffffffffffffffffffffffffffff16021790555060208201518160010160006101000a81548173ffffffffffffffffffffffffffffffffffffffff021916908373ffffffffffffffffffffffffffffffffffffffff16021790555060408201518160020155606082015181600301556080820151816004015560a0820151816005015560c0820151816006015560e082015181600701556101008201518160080160006101000a81548160ff02191690836004811115611ba157611ba0611dcf565b5b0217905550610120820151816009015561014082015181600a01559050503373ffffffffffffffffffffffffffffffffffffffff166004547fd9e0fad75719006012070a878700b8153416ce4e886894966c8e67ab561b0ab88660036000600454815260200190815260200160002060080160009054906101000a900460ff16604051611c2f929190612e0e565b60405180910390a350505050565b6040518060c0016040528060608152602001606081526020016000815260200160006001811115611c7157611c70611dcf565b5b8152602001606081526020016000151581525090565b6000604051905090565b600080fd5b600080fd5b600073ffffffffffffffffffffffffffffffffffffffff82169050919050565b6000611cc682611c9b565b9050919050565b611cd681611cbb565b8114611ce157600080fd5b50565b600081359050611cf381611ccd565b92915050565b600060208284031215611d0f57611d0e611c91565b5b6000611d1d84828501611ce4565b91505092915050565b600081519050919050565b600082825260208201905092915050565b60005b83811015611d60578082015181840152602081019050611d45565b60008484015250505050565b6000601f19601f8301169050919050565b6000611d8882611d26565b611d928185611d31565b9350611da2818560208601611d42565b611dab81611d6c565b840191505092915050565b6000819050919050565b611dc981611db6565b82525050565b7f4e487b7100000000000000000000000000000000000000000000000000000000600052602160045260246000fd5b60028110611e0f57611e0e611dcf565b5b50565b6000819050611e2082611dfe565b919050565b6000611e3082611e12565b9050919050565b611e4081611e25565b82525050565b60008115159050919050565b611e5b81611e46565b82525050565b600060c0820190508181036000830152611e7b8189611d7d565b90508181036020830152611e8f8188611d7d565b9050611e9e6040830187611dc0565b611eab6060830186611e37565b8181036080830152611ebd8185611d7d565b9050611ecc60a0830184611e52565b979650505050505050565b611ee081611db6565b8114611eeb57600080fd5b50565b600081359050611efd81611ed7565b92915050565b600060208284031215611f1957611f18611c91565b5b6000611f2784828501611eee565b91505092915050565b60028110611f3d57600080fd5b50565b600081359050611f4f81611f30565b92915050565b60008060408385031215611f6c57611f6b611c91565b5b6000611f7a85828601611ce4565b9250506020611f8b85828601611f40565b9150509250929050565b600082825260208201905092915050565b6000611fb182611d26565b611fbb8185611f95565b9350611fcb818560208601611d42565b611fd481611d6c565b840191505092915050565b611fe881611db6565b82525050565b611ff781611e25565b82525050565b61200681611e46565b82525050565b600060c08301600083015184820360008601526120298282611fa6565b915050602083015184820360208601526120438282611fa6565b91505060408301516120586040860182611fdf565b50606083015161206b6060860182611fee565b50608083015184820360808601526120838282611fa6565b91505060a083015161209860a0860182611ffd565b508091505092915050565b600060208201905081810360008301526120bd818461200c565b905092915050565b6120ce81611cbb565b82525050565b60006020820190506120e960008301846120c5565b92915050565b600080fd5b600080fd5b7f4e487b7100000000000000000000000000000000000000000000000000000000600052604160045260246000fd5b61213182611d6c565b810181811067ffffffffffffffff821117156121505761214f6120f9565b5b80604052505050565b6000612163611c87565b905061216f8282612128565b919050565b600067ffffffffffffffff82111561218f5761218e6120f9565b5b61219882611d6c565b9050602081019050919050565b82818337600083830152505050565b60006121c76121c284612174565b612159565b9050828152602081018484840111156121e3576121e26120f4565b5b6121ee8482856121a5565b509392505050565b600082601f83011261220b5761220a6120ef565b5b813561221b8482602086016121b4565b91505092915050565b600080600080600060a086880312156122405761223f611c91565b5b600086013567ffffffffffffffff81111561225e5761225d611c96565b5b61226a888289016121f6565b955050602086013567ffffffffffffffff81111561228b5761228a611c96565b5b612297888289016121f6565b945050604086013567ffffffffffffffff8111156122b8576122b7611c96565b5b6122c4888289016121f6565b93505060606122d588828901611eee565b92505060806122e688828901611f40565b9150509295509295909350565b60006020820190506123086000830184611dc0565b92915050565b6005811061231f5761231e611dcf565b5b50565b60008190506123308261230e565b919050565b600061234082612322565b9050919050565b61235081612335565b82525050565b60006101608201905061236c600083018e6120c5565b612379602083018d6120c5565b612386604083018c611dc0565b612393606083018b611dc0565b6123a0608083018a611dc0565b6123ad60a0830189611dc0565b6123ba60c0830188611dc0565b6123c760e0830187611dc0565b6123d5610100830186612347565b6123e3610120830185611dc0565b6123f1610140830184611dc0565b9c9b505050505050505050505050565b60008060006060848603121561241a57612419611c91565b5b600061242886828701611eee565b935050602061243986828701611eee565b925050604061244a86828701611eee565b9150509250925092565b7f4e487b7100000000000000000000000000000000000000000000000000000000600052602260045260246000fd5b6000600282049050600182168061249b57607f821691505b6020821081036124ae576124ad612454565b5b50919050565b7f496e76616c6964206c6f616e2049440000000000000000000000000000000000600082015250565b60006124ea600f83611d31565b91506124f5826124b4565b602082019050919050565b60006020820190508181036000830152612519816124dd565b9050919050565b7f4e6f742061206c656e6465720000000000000000000000000000000000000000600082015250565b6000612556600c83611d31565b915061256182612520565b602082019050919050565b6000602082019050818103600083015261258581612549565b9050919050565b7f4c6f616e206e6f7420617661696c61626c650000000000000000000000000000600082015250565b60006125c2601283611d31565b91506125cd8261258c565b602082019050919050565b600060208201905081810360008301526125f1816125b5565b9050919050565b7f4e487b7100000000000000000000000000000000000000000000000000000000600052601160045260246000fd5b600061263282611db6565b915061263d83611db6565b9250828203905081811115612655576126546125f8565b5b92915050565b60006020820190506126706000830184612347565b92915050565b7f4e6f7420746865206f776e657200000000000000000000000000000000000000600082015250565b60006126ac600d83611d31565b91506126b782612676565b602082019050919050565b600060208201905081810360008301526126db8161269f565b9050919050565b7f55736572206e6f7420666f756e64000000000000000000000000000000000000600082015250565b6000612718600e83611d31565b9150612723826126e2565b602082019050919050565b600060208201905081810360008301526127478161270b565b9050919050565b7f496e636f72726563742066756e64696e6720616d6f756e740000000000000000600082015250565b6000612784601883611d31565b915061278f8261274e565b602082019050919050565b600060208201905081810360008301526127b381612777565b9050919050565b60006127c582611db6565b91506127d083611db6565b92508282019050808211156127e8576127e76125f8565b5b92915050565b7f5573657220616c72656164792072656769737465726564000000000000000000600082015250565b6000612824601783611d31565b915061282f826127ee565b602082019050919050565b6000602082019050818103600083015261285381612817565b9050919050565b60008190508160005260206000209050919050565b60006020601f8301049050919050565b600082821b905092915050565b6000600883026128bc7fffffffffffffffffffffffffffffffffffffffffffffffffffffffffffffffff8261287f565b6128c6868361287f565b95508019841693508086168417925050509392505050565b6000819050919050565b60006129036128fe6128f984611db6565b6128de565b611db6565b9050919050565b6000819050919050565b61291d836128e8565b6129316129298261290a565b84845461288c565b825550505050565b600090565b612946612939565b612951818484612914565b505050565b5b818110156129755761296a60008261293e565b600181019050612957565b5050565b601f8211156129ba5761298b8161285a565b6129948461286f565b810160208510156129a3578190505b6129b76129af8561286f565b830182612956565b50505b505050565b600082821c905092915050565b60006129dd600019846008026129bf565b1980831691505092915050565b60006129f683836129cc565b9150826002028217905092915050565b612a0f82611d26565b67ffffffffffffffff811115612a2857612a276120f9565b5b612a328254612483565b612a3d828285612979565b600060209050601f831160018114612a705760008415612a5e578287015190505b612a6885826129ea565b865550612ad0565b601f198416612a7e8661285a565b60005b82811015612aa657848901518255600182019150602085019450602081019050612a81565b86831015612ac35784890151612abf601f8916826129cc565b8355505b6001600288020188555050505b505050505050565b60006040820190508181036000830152612af28185611d7d565b9050612b016020830184611e37565b9392505050565b7f496e76616c6964204c6f616e2049640000000000000000000000000000000000600082015250565b6000612b3e600f83611d31565b9150612b4982612b08565b602082019050919050565b60006020820190508181036000830152612b6d81612b31565b9050919050565b7f4e6f7420626f72726f7765720000000000000000000000000000000000000000600082015250565b6000612baa600c83611d31565b9150612bb582612b74565b602082019050919050565b60006020820190508181036000830152612bd981612b9d565b9050919050565b7f43616e6e6f742063616e63656c00000000000000000000000000000000000000600082015250565b6000612c16600d83611d31565b9150612c2182612be0565b602082019050919050565b60006020820190508181036000830152612c4581612c09565b9050919050565b7f4e6f74206120626f72726f776572000000000000000000000000000000000000600082015250565b6000612c82600e83611d31565b9150612c8d82612c4c565b602082019050919050565b60006020820190508181036000830152612cb181612c75565b9050919050565b6000612cc382611db6565b9150612cce83611db6565b9250828202612cdc81611db6565b91508282048414831517612cf357612cf26125f8565b5b5092915050565b7f4e487b7100000000000000000000000000000000000000000000000000000000600052601260045260246000fd5b6000612d3482611db6565b9150612d3f83611db6565b925082612d4f57612d4e612cfa565b5b828204905092915050565b7f496e73756666696369656e7420636f6c6c61746572616c000000000000000000600082015250565b6000612d90601783611d31565b9150612d9b82612d5a565b602082019050919050565b60006020820190508181036000830152612dbf81612d83565b9050919050565b6000612dd182611db6565b91507fffffffffffffffffffffffffffffffffffffffffffffffffffffffffffffffff8203612e0357612e026125f8565b5b600182019050919050565b6000604082019050612e236000830185611dc0565b612e306020830184612347565b939250505056fea26469706673582212204b29470b93cc8f9f8e2084ee7b88f43a1eccafc56a2efde079ae65688e7fec5264736f6c63430008180033",
  "linkReferences": {},
  "deployedLinkReferences": {}
}